S013000050726F6A6563745F52697A2E73726563A6
S113000033C000004CC000004AC0000048C00000DB
S113001046C0000044C0000055C2000040C00000BB
S11300203EC000003CC000003AC0000038C00000E0
S113003036C0000034C0000032C0000030C00000F0
S11300402EC000002CC000002AC0000028C0000000
S113005026C00000E600EA00EE00F200F600FA0016
S1130060FE00020106010A0111241FBECFE5D4E0FF
S1130070DEBFCDBF10E0A0E6B0E0E8E9F5E002C0E5
S113008005900D92AE3AB107D9F720E0AEEAB0E0A0
S113009001C01D92A33BB207E1F76DD17BC2B0CF83
S11300A09BB39F70282F207F922B9BBBD998DB9A00
S11300B00000DB9832E43A95F1F700C02BB32F70BF
S11300C030E1839FC0011124822B8BBBDB9A00009B
S11300D0DB9883EF91E00197F1F700C000000895E9
S11300E09BB39F70282F207F922B9BBBD99ADB9ABE
S11300F00000DB9832E43A95F1F700C02BB32F707F
S113010030E1839FC0011124822B8BBBDB9A00005A
S1130110DB9883EF91E00197F1F700C000000895A8
S11301208FEF8ABB87E893E10197F1F700C00000E5
S113013083E3B6DF82E3B4DF88E2B2DF8CE0B0DFD2
S113014086E0AEDF81E0ACDF83EF91E00197F1F769
S113015000C0000080E8A4CF0895CF93DF93EC01A2
S11301608881882329F02196BBDF89918111FCCFF6
S1130170DF91CF91089581E093DF83EF91E00197C0
S1130180F1F700C0000080E88BCF0895B39909C04F
S11301902FE38DE093E0215080409040E1F700C0D0
S11301A000000895B49909C02FE38DE093E0215035
S11301B080409040E1F700C00000089590E08A304C
S11301C0910558F5FC01E65DFF4FDEC18FE890E034
S11301D0C4CF089581E990E0C0CF089583E990E009
S11301E0BCCF089585E990E0B8CF089587E990E001
S11301F0B4CF089589E990E0B0CF08958BE990E0F9
S1130200ACCF08958DE990E0A8CF08958FE990E0F0
S1130210A4CF089581EA90E0A0CF0895FF920F93B0
S11302201F93CF93DF93F82E062F142FA4DF83EAB6
S113023090E093DFCDECFC9ED12D1124D695D6957C
S1130240D6958D2FBBDFDD0F8D2F880F880FD80F2C
S11302508F2D8D1BB3DF8BEA90E07FDF0C9FD12DB8
S11302601124D695D695D6958D2FA8DFDD0F8D2F29
S1130270880F880FD80F802F8D1BA0DF8BEA90E0AA
S11302806CDF1C9FC12D1124C695C695C6958C2F75
S113029095DFCC0F8C2F880F880FC80F812F8C1BF4
S11302A08DDF2FE38DE093E0215080409040E1F713
S11302B000C00000DF91CF911F910F91FF9008952E
S11302C08091B10063DF8091B2006CDF4091B00097
S11302D06091B1008091B200A1CF089540918E0049
S11302E060918D0080918C0099CF089580918B004E
S11302F04DDF80918A0056DF40E060918B00809151
S11303008A008CCF08958091890040DF8091880015
S113031049DF40E060918900809188007FCF089593
S11303208091870033DF809186003CDF40E060915C
S113033087008091860072CF08958091850026DF22
S1130340809184002FDF40E06091850080918400DB
S113035065CF08959091B20080918A00981309C0E6
S11303609091B10080918B00981303C08FEF82BBF2
S1130370089512BA0895D4DE8CE08EBD88E09DE322
S11303809BBD8ABD80E189BF8FEF81BB88BB84BBE5
S11303907894C1E0DC2F10E0DDDF86B32091AE005D
S11303A03091AF00F901EE0FFF1FE20FF31FEE0FC4
S11303B0FF1FE05AFF4F4081518181708C17B1F0CB
S11303C08D2F4F3F9FEF590709F4812F882371F038
S11303D05093AF004093AE002FE38DE093E02150A3
S11303E080409040E1F700C000004CC086B3F901A2
S11303F0EE0FFF1FE20FF31FEE0FFF1FE05AFF4F38
S113040042815381869581708C17B1F08D2F4F3FB7
S11304109FEF590709F4812F882371F05093AF009F
S11304204093AE002FE382E49FE02150804090404F
S1130430E1F700C0000026C086B3F901EE0FFF1FEC
S1130440E20FF31FEE0FFF1FE05AFF4F24813581A7
S113045082FB882780F98C17A9F08D2F2F3F9FEFFF
S1130460390709F4812F882369F03093AF00209372
S1130470AE002FE38DE093E0215080409040E1F7FF
S113048000C000008091AE009091AF0082309105D1
S113049089F02CF4009751F0019751F07DCF84300E
S11304A0910561F04CF0059759F076CF09DF74CFD0
S11304B015DF72CF1BDF70CF26DF6ECF31DF6CCF3D
S11304C03CDF6ACF1F920F920FB60F9211248F93C5
S11304D09F938091B0008F5F8093B0008091B000B3
S11304E08C3339F41092B0008091B1008F5F809307
S11304F0B1008091B1008C3339F41092B100809135
S1130500B2008F5F8093B2008091B200883138F0DE
S11305101092B20080918E008F5F80938E00809144
S11305208E008F3159F480918D00883098F091E0DD
S113053090938E008F5F80938D000CC0803251F4B5
S113054080918D00873030F491E090938E008F5F1E
S113055080938D0080918D008D3041F481E08093F3
S11305608D0080918C008F5F80938C0080918C0033
S1130570843618F081E680938C009F918F910F90C0
S11305800FBE0F901F901895EE0FFF1F0590F4916A
S10B0590E02D0994F894FFCF5B
S1130598010002000400000002000400FFFF030041
S11305A8FFFFFFFF0000FFFFFFFFFFFF0500FFFF46
S11305B8FFFF000011100F0E0D0C0B0A6101013032
S11305C8003100320033003400350036003700387B
S11105D80039002054696D653D20003A000092
S9030000FC
